:020000040800F2
:1000000000000220291200081D0E00081F0E000823
:10001000210E0008230E0008250E00080000000035
:10002000000000000000000000000000270E000893
:10003000290E0008000000002B0E00082D0E0008FD
:100040007912000879120008791200087912000864
:100050007912000879120008791200087912000854
:100060007912000879120008791200087912000844
:10007000350E00087912000879120008791200087C
:100080007912000879120008791200087912000824
:100090007912000879120008791200087912000814
:1000A0007912000879120008791200087912000804
:1000B00079120008791200087912000879120008F4
:1000C00079120008791200087912000879120008E4
:1000D00079120008791200087912000879120008D4
:1000E00079120008791200087912000879120008C4
:1000F00079120008791200087912000879120008B4
:1001000079120008791200087912000879120008A3
:100110007912000879120008791200087912000893
:100120007912000879120008791200087912000883
:100130007912000879120008791200087912000873
:100140007912000879120008791200087912000863
:100150007912000879120008791200087912000853
:100160007912000879120008791200087912000843
:1001700079120008791200087912000800000000C6
:08018000791200087912000851
:1001880010B5054C237833B9044B13B10448AFF3C9
:1001980000800123237010BD1C0000200000000017
:1001A800C02B000808B5034B1BB103490348AFF344
:1001B800008008BD0000000020000020C02B0008BF
:1001C80070B54FF0FF0C4CF4E06C1CEA11541DBFE5
:1001D8001CEA135594EA0C0F95EA0C0F00F0DEF8B0
:1001E8002C4481EA030621EA4C5123EA4C5350EA95
:1001F800013518BF52EA033541F4801143F48013E6
:1002080038D0A0FB02CE4FF00005E1FB02E506F076
:100218000042E0FB03E54FF00006E1FB03569CF0CB
:10022800000F18BF4EF0010EA4F1FF04B6F5007FD1
:1002380064F5407404D25FEA4E0E6D4146EB060643
:1002480042EAC62141EA55514FEAC52040EA5E50CC
:100258004FEACE2EB4F1FD0C88BFBCF5E06F1ED876
:10026800BEF1004F08BF5FEA500E50F1000041EBAD
:10027800045170BD06F0004646EA010140EA02005A
:1002880081EA0301B4EB5C04C2BFD4EB0C0541EA7C
:10029800045170BD41F480114FF0000E013C00F391
:1002A800AB8014F1360FDEBF002001F0004170BDB5
:1002B800C4F10004203C35DA0C341BDC04F11404CE
:1002C800C4F1200500FA05F320FA04F001FA05F25A
:1002D80040EA020001F0004221F0004110EBD37027
:1002E80021FA04F642EB06015EEA430E08BF20EA53
:1002F800D37070BDC4F10C04C4F1200500FA04F3F6
:1003080020FA05F001FA04F240EA020001F0004187
:1003180010EBD37041F100015EEA430E08BF20EAFA
:10032800D37070BDC4F1200500FA05F24EEA020E42
:1003380020FA04F301FA05F243EA020321FA04F071
:1003480001F0004121FA04F220EA020000EBD37028
:100358005EEA430E08BF20EAD37070BD94F0000F28
:100368000FD101F00046400041EB010111F4801F5C
:1003780008BF013CF7D041EA060195F0000F18BF0D
:10038800704703F00046520043EB030313F4801F49
:1003980008BF013DF7D043EA0603704794EA0C0F03
:1003A8000CEA135518BF95EA0C0F0CD050EA410619
:1003B80018BF52EA4306D1D181EA030101F0004196
:1003C8004FF0000070BD50EA410606BF10461946BE
:1003D80052EA430619D094EA0C0F02D150EA0136CA
:1003E80013D195EA0C0F05D152EA03361CBF10460B
:1003F80019460AD181EA030101F0004141F0FE41AA
:1004080041F470014FF0000070BD41F0FE4141F42D
:10041800780170BD81F0004102E000BF83F0004325
:1004280030B54FEA41044FEA430594EA050F08BF87
:1004380090EA020F1FBF54EA000C55EA020C7FEA4B
:10044800645C7FEA655C00F0E2804FEA5454D4EBC8
:100458005555B8BF6D420CDD2C4480EA020281EA92
:10046800030382EA000083EA010180EA020281EACA
:100478000303362D88BF30BD11F0004F4FEA01311C
:100488004FF4801C4CEA113102D0404261EB41012B
:1004980013F0004F4FEA03334CEA133302D05242B1
:1004A80063EB430394EA050F00F0A780A4F101046D
:1004B800D5F1200E0DDB02FA0EFC22FA05F28018A7
:1004C80041F1000103FA0EF2801843FA05F359418D
:1004D8000EE0A5F120050EF1200E012A03FA0EFC0C
:1004E80028BF4CF0020C43FA05F3C01851EBE37136
:1004F80001F0004507D54FF0000EDCF1000C7EEB53
:1005080000006EEB0101B1F5801F1BD3B1F5001F90
:100518000CD349085FEA30004FEA3C0C04F10104AF
:100528004FEA445212F5800F80F09A80BCF1004FD8
:1005380008BF5FEA500C50F1000041EB045141EA5A
:10054800050130BD5FEA4C0C404141EB0101013C23
:1005580028BFB1F5801FE9D291F0000F04BF014612
:100568000020B1FA81F308BF2033A3F10B03B3F1E4
:1005780020020CDA0C3208DD02F1140CC2F10C0274
:1005880001FA0CF021FA02F10CE002F11402D8BFD2
:10059800C2F1200C01FA02F120FA0CFCDCBF41EA9E
:1005A8000C019040E41AA2BF01EB0451294330BD6D
:1005B8006FEA04041F3C1CDA0C340EDC04F114044A
:1005C800C4F1200220FA04F001FA02F340EA030021
:1005D80021FA04F345EA030130BDC4F10C04C4F167
:1005E800200220FA02F001FA04F340EA0300294647
:1005F80030BD21FA04F0294630BD94F0000F83F491
:10060800801306BF81F480110134013D4EE77FEA73
:10061800645C18BF7FEA655C29D094EA050F08BFBF
:1006280090EA020F05D054EA000C04BF19461046A0
:1006380030BD91EA030F1EBF0021002030BD5FEAE4
:10064800545C05D14000494128BF41F0004130BD0C
:1006580014F580043CBF01F5801130BD01F0004560
:1006680045F0FE4141F470014FF0000030BD7FEAD3
:10067800645C1ABF194610467FEA655C1CBF0B46CE
:10068800024650EA013406BF52EA033591EA030FE5
:1006980041F4002130BD00BF90F0000F04BF0021DD
:1006A800704730B54FF4806404F132044FF0000510
:1006B8004FF0000150E700BF90F0000F04BF002189
:1006C800704730B54FF4806404F1320410F00045EF
:1006D80048BF40424FF000013EE700BF42004FEAEA
:1006E800E2014FEA31014FEA02701FBF12F07F4367
:1006F80093F07F4F81F06051704732F07F4208BF1E
:10070800704793F07F4F04BF41F40021704730B524
:100718004FF4607401F0004521F000411CE700BF70
:1007280050EA010208BF704730B54FF000050AE0F3
:1007380050EA010208BF704730B511F0004502D5F4
:10074800404261EB41014FF4806404F132045FEAF6
:10075800915C3FF4D8AE4FF003025FEADC0C18BF9F
:1007680003325FEADC0C18BF033202EBDC02C2F191
:10077800200300FA03FC20FA02F001FA03FE40EA23
:100788000E0021FA02F11444BDE600BF4A0011D25E
:1007980012F5001211D20DD56FF47873B3EB6252D3
:1007A8000ED44FEAC12343F0004343EA505323FADF
:1007B80002F070474FF00000704750EA013002D154
:1007C8004FF0FF3070474FF00000704753B94AB9F7
:1007D800002908BF00281CBF4FF0FF314FF0FF3041
:1007E80000F06AB9ADF1080C6DE904CE00F006F826
:1007F800DDF804E0DDE9022304B070472DE9F04795
:10080800089D0C46002B4ED194468C458646B2FA7C
:1008180082F262D94AB1C2F12003914020FA03F36F
:100828000CFA02FC194300FA02FE4FEA1C471FFAB1
:100838008CF6B1FBF7F44FEA1E4307FB141143EAA9
:10084800014304FB06F199420AD91CEB030304F1A6
:10085800FF3080F01281994240F20F81023C6344DC
:10086800591A1FFA8EF3B1FBF7F007FB101143EA90
:10087800014300FB06F69E420AD91CEB030300F174
:10088800FF3180F0FC809E4240F2F98063440238D8
:100898009B1B40EA044000211DB1D3400022C5E95A
:1008A8000032BDE8F0878B4205D90DB1C5E90001DA
:1008B80000210846F5E7B3FA83F1002946D1A3429F
:1008C80002D39042C0F0F080861A64EB0303012043
:1008D800002DE6D0C5E90063E3E7002A40F09080E8
:1008E800A1EB0C044FEA1C481FFA8CF70121B4FB5A
:1008F800F8F64FEA1E4308FB164443EA044307FB95
:1009080006F0984208D91CEB030306F1FF3402D223
:10091800984200F2CD8026461C1A1FFA8EF3B4FBCB
:10092800F8F008FB104443EA044300FB07F79F4232
:1009380008D91CEB030300F1FF3402D29F4200F2F6
:10094800B0802046DB1B40EA0640A5E7C1F120063F
:100958008B4022FA06F71F4320FA06FC04FA01F33B
:1009680043EA0C03F44000FA01F8380C4FEA134943
:10097800B4FBF0FE1FFA87FC00FB1E4449EA04445E
:100988000EFB0CF9A14502FA01F20AD93C190EF145
:10099800FF3A80F08480A14540F28180AEF1020EDA
:1009A8003C44A4EB09041FFA83F9B4FBF0F300FB01
:1009B800134449EA044403FB0CFCA44507D93C1939
:1009C80003F1FF3067D2A44565D9023B3C4443EAB2
:1009D8000E40A0FB0293A4EB0C049C42CE469C461E
:1009E80051D34ED055B1B8EB0E0364EB0C0404FAA6
:1009F80006F6CB401E43CC40C5E90064002150E711
:100A0800C2F1200320FA03F10CFA02FC24FA03F3E2
:100A180094400C434FEA1C4800FA02FE1FFA8CF778
:100A2800B3FBF8F008FB1031230C43EA014300FB49
:100A380007F1994208D91CEB030300F1FF362CD2C9
:100A480099422AD9023863445B1AA4B2B3FBF8F17D
:100A580008FB113344EA034401FB07F3A34208D916
:100A68001CEB040401F1FF3613D2A34211D9023959
:100A78006444E41A41EA004139E70446F0E60846CE
:100A880006E7C845AED2B9EB020E63EB070C013896
:100A9800A8E73146EDE7034699E73046D4E7D6465E
:100AA8007FE7634402384DE70646234608460FE7CA
:100AB800023E634430E700BF704700BF00B583B013
:100AC80000210191094B1A6B42F400121A631B6B47
:100AD80003F400130193019B0A460C2000F070FCFC
:100AE8000C2000F07DFC03B05DF804FB00380240E8
:100AF80086B0002201921A4B196B41F0010119636B
:100B0800196B01F00101019101990292196B41F0F1
:100B180004011963196B01F004010291029903920F
:100B2800196B41F480711963196B01F48071039199
:100B380003990492196B41F080011963196B01F054
:100B480080010491049905921A6B42F010021A630D
:100B58001B6B03F010030593059B06B0704700BF9D
:100B6800003802400000000008B500F52570FFF7C6
:100B7800A3FD07A3D3E90023FFF722FB0022064BBE
:100B8800FFF74EFCFFF702FE80B208BDAFF300800E
:100B98002FBAE8A28B2EF23F00407F4072B6FEE7E4
:100BA80000B595B03022002108A801F072FF00239B
:100BB8000393049305930693079301931F4A116CBB
:100BC80041F080511164126C02F080520192019A36
:100BD80002931B4A116841F480411160126802F4C3
:100BE80080420292029A0222089201210B9110215E
:100BF8000C910E920F9308231093A823119312922D
:100C08000423139308A800F005FF98B90F23039352
:100C180002230493002305934FF4A05306934FF443
:100C280080530793052103A801F044F920B915B0B2
:100C38005DF804FBFFF7B2FFFFF7B0FF0038024092
:100C48000070004080B500F03BFBFFF7A9FFFFF7FD
:100C58004FFFFFF733FF00F085F900F0FDF900F0D2
:100C680069FA12222849294801F000FF284C00217E
:100C7800204601F035FC0421204601F031FC082112
:100C8800204601F02DFC0C21204601F029FC214CC6
:100C98000021204601F024FC0421204601F020FC1C
:100CA8001D4BB3F9082040F203339A42F8D11A4D8C
:100CB800B5F90000FFF758FF8146184C2080B5F9B8
:100CC8000200FFF751FF80466080B5F90400FFF786
:100CD8004BFF0746A080B5F90600FFF745FF06461B
:100CE800E080B5F91400FFF73FFF20816081084AD2
:100CF8001268C2F83490C2F83880D7631664054A7F
:100D0800126850639063CBE738000020540100203C
:100D1800AC000020640000204C00002000000020EF
:100D2800264B1978587841EA0021C1F30A01A1F548
:100D38008061234A11809978C00840EA4110C0F3C5
:100D48000A00A0F580605080D878890941EA8001BE
:100D5800187941EA8021C1F30A01A1F580619180E7
:100D68005979400840EAC110C0F30A00A0F5806034
:100D7800D08088091072C1F3011151729979D8791C
:100D880041EA00215181197A587A41EA002191817A
:100D9800997AD87A41EA0021D181197B1174597B5B
:100DA8005174997BD87B41EA00215182197C5B7C84
:100DB80041EA0323A3F5806393827047380000203B
:100DC8004C00002008B50268034B9A4200D008BDC9
:100DD800FFF7A6FFFBE700BF0048004082B00021F4
:100DE80000910B4B5A6C42F480425A645A6C02F4DC
:100DF80080420092009A01911A6C42F080521A6463
:100E08001B6C03F080530193019B02B0704700BF35
:100E180000380240FEE7FEE7FEE7FEE7FEE7704720
:100E28007047704708B500F065FA08BD08B5034873
:100E380000F008FCFFF774FF08BD00BFF4000020B5
:100E4800704700000268094B9A4200D0704782B090
:100E580000230193064B5A6C42F001025A645B6C02
:100E680003F001030193019B02B0704700000140A9
:100E7800003802400268094B9A4200D0704782B09D
:100E880000230193064B5A6C42F002025A645B6CD1
:100E980003F002030193019B02B070470004014074
:100EA80000380240F0B589B00023039304930593FA
:100EB800069307930368254A934204D0244A934231
:100EC80019D009B0F0BD00230093224B1A6B42F0F1
:100ED80010021A631B6B03F010030093009B4FF47E
:100EE800D4430393022304930123079303A91A48C5
:100EF80000F096FCE5E700240194164B1A6B42F4C7
:100F080080721A631A6B02F480720192019A029439
:100F18001A6B42F004021A631B6B03F0040302937A
:100F2800029B40270397022604960325079503A9E9
:100F38000A4800F075FC03970496059406940795F3
:100F480003A9074800F06CFCBBE700BF00000140A4
:100F58000004014000380240001002400020024016
:100F68000008024010B592B000241094119409941E
:100F78000A940B940C940D940E940F9420222146FD
:100F880001A801F086FD3248324B0360A723436075
:100F9800846044F61F63C36004614461846101F0A6
:100FA8008FF900283ED100231093119310A92848E7
:100FB80001F018FB002838D1602309934FF4FA6335
:100FC8000A9300220B920C920D920E920F9209A98D
:100FD8001F4801F008FA58BB042209A91C4801F06F
:100FE80002FA40BB082209A9194801F0FCF928BBFC
:100FF8000C2209A9164801F0F6F910BB0023019349
:1010080002930393049305934FF4005206920893B6
:1010180001A90F4801F02CFBB0B90D48FFF742FFBA
:1010280012B010BDFFF7BAFDBDE7FFF7B7FDC3E784
:10103800FFF7B4FDD0E7FFF7B1FDD3E7FFF7AEFD4B
:10104800D6E7FFF7ABFDD9E7FFF7A8FDE5E700BF57
:10105800AC0000200000014010B592B000241094AC
:10106800119409940A940B940C940D940E940F9473
:101078002022214601A801F00CFD2C482C4B0360CE
:10108800446084604FF6FF73C36004614461846107
:1010980001F0EAF8002836D1244801F011F90028B7
:1010A80034D100231093119310A9204801F09AFA23
:1010B80000282ED1002209920A920B920C920D92CE
:1010C8000E920F9209A9194801F05EF920BB60231E
:1010D8000993042209A9154801F085F9F8B90023F4
:1010E800019302930393049305934FF400520692DD
:1010F800089301A90D4801F0BBFA98B90B48FFF70E
:10110800D1FE12B010BDFFF749FDC5E7FFF746FD58
:10111800C7E7FFF743FDCDE7FFF740FDD7E7FFF748
:101128003DFDDCE7FFF73AFDE8E700BF640000207B
:101138000004014008B50A480A4B03600A4B4360A3
:1011480000238360C36003610C2242618361C36131
:1011580001F07EFB00B908BDFFF720FDFBE700BFEB
:101168005401002000480040A086010030B589B035
:101178000023039304930593069307930268244B73
:101188009A4201D009B030BD04460025019503F507
:10119800F8331A6C42F480221A641A6C02F4802222
:1011A8000192019A02951A6B42F004021A631B6BB2
:1011B80003F004030293029B4FF44063039302235A
:1011C8000493032306930723079303A9114800F008
:1011D80027FB1148114B03604FF0006343608560A3
:1011E800C5604FF480630361456185614FF4807386
:1011F800C3614FF440330362456200F087F918B9C0
:10120800054BE3639C63BDE7FFF7C8FCF8E700BF45
:101218000048004000080240F40000202860024016
:10122800DFF834D0FFF70CFE0C480D490D4A0023B7
:1012380002E0D458C4500433C4188C42F9D30A4A83
:101248000A4C002301E013600432A242FBD301F0F0
:1012580029FCFFF7F7FC704700000220000000207F
:101268001C0000200C2C00081C0000203803002063
:10127800FEE7000010B504460E4B1A784FF47A7357
:10128800B3FBF2F30C4A1068B0FBF3F000F0ACF8D3
:1012980068B90F2C01D901200AE0002221464FF03D
:1012A800FF3000F08DF8054B1C60002000E00120A5
:1012B80010BD00BF100000200C000020140000200A
:1012C80008B50B4B1A6842F400721A601A6842F4A7
:1012D80080621A601A6842F480721A60032000F073
:1012E8005DF80F20FFF7C6FFFFF778FD002008BD67
:1012F800003C0240034A1168034B1B780B441360FF
:10130800704700BF9C01002010000020014B1868A6
:10131800704700BF9C010020002807DB00F01F0277
:10132800400901239340024A42F82030704700BF29
:1013380000E100E0002808DB0901C9B200F16040C3
:1013480000F5614080F80013704700F00F000901B4
:10135800C9B2014B1954704714ED00E000B500F014
:101368000700C0F1070CBCF1040F28BF4FF0040CB4
:10137800031D062B0FD9C31E4FF0FF3E0EFA0CF0CB
:1013880021EA000199400EFA03FE22EA0E0241EA20
:1013980002005DF804FB0023EEE70000074AD3686B
:1013A80023F4E0631B041B0C000200F4E060034319
:1013B80043F0BF6343F40033D360704700ED00E0AF
:1013C80010B50446054BD868C0F30220FFF7C6FFE6
:1013D80001462046FFF7AEFF10BD00BF00ED00E05C
:1013E80008B5FFF799FF08BD0138B0F1807F0BD22F
:1013F8004FF0E0235861054AF02182F823100020BD
:10140800986107221A6170470120704700ED00E0DB
:1014180030B405682C6824F480242C600468636068
:101428008368402B05D0036899600368DA6030BC94
:10143800704703689A600368D960F8E710B40368D6
:10144800D9B210390B4AA2FB014212090A4CA25C1C
:10145800C2655F2908D923F47F7323F0030304339B
:101468008365806D10BC704723F47F7323F00303FA
:101478008365F6E7ABAAAAAAF02B0008836A8269FB
:1014880092B9012B0AD0022B02D00BB10020704771
:10149800C36A13F0807F28D100207047C36AB3F174
:1014A800C07F24D000207047B2F5005F09D0022B1E
:1014B80025D9032B25D1C36A13F0807F23D10020BF
:1014C8007047032B03D8DFE803F01404140A002044
:1014D8007047C36A13F0807F0DD100207047C36A3C
:1014E800B3F1C07F09D00020704701207047012068
:1014F8007047012070470120704701207047012084
:1015080070470020704701207047000070B50446FE
:10151800FFF7FCFE002C5BD00546022384F835302B
:10152800002384F834302268136823F00103136021
:1015380023681A6812F0010F0AD0FFF7E7FE431B71
:10154800052BF5D920236365032084F8350070BD89
:101558001A68204911406268A0680243E0680243A3
:101568002069024360690243A0690243E0690243BB
:10157800206A02430A43616A04291ED01A60266859
:10158800756925F00705636A1D43042B07D1A36A13
:101598001D43E36A1BB12046FFF770FF90B97561E0
:1015A8002046FFF74BFFE26D3F2393408360002006
:1015B8006065012384F83530C9E7E16A206B01438F
:1015C8000A43DBE740236365012084F83500BEE762
:1015D8000120BCE73F8010F038B50446856D90F8CF
:1015E800340001282BD0012084F8340094F8350009
:1015F800C0B2012804D0002384F83430022038BD5A
:10160800022084F83500002060652046FFF700FFBF
:10161800E26D3F239340AB602268136843F01603E2
:101628001360236C23B12268136843F00803136026
:101638002268136843F0010313600020DFE70220EB
:10164800DDE70000F0B583B0044600230193724B38
:101658001D68724BA3FB0535AD0A876D3E68C26DE8
:1016680008239340334210D003681A6812F0040F1D
:101678000BD01A6822F004021A60C26D0823934046
:10168800BB60436D43F001034365E26D0123934062
:10169800334209D02268526912F0800F04D0BB602F
:1016A800636D43F002036365E26D042393403342A4
:1016B80009D02268126812F0020F04D0BB60636D73
:1016C80043F004036365E26D10239340334224D052
:1016D8002268126812F0080F1FD0BB6023681A68CE
:1016E80012F4802F0DD01B6813F4002F04D1236C43
:1016F8009BB12046984710E0A36C73B120469847E9
:101708000BE01A6812F4807F03D11A6822F00802ED
:101718001A60236C0BB120469847E26D2023934052
:10172800334255D02268126812F0100F50D0BB60B7
:1017380094F83530DBB2052B0ED023681A6812F402
:10174800802F33D01B6813F4002F2AD1636C002B31
:101758003ED0204698473BE02268136823F01603E2
:1017680013602268536923F080035361236CA3B18B
:101778002268136823F008031360E26D3F23934047
:10178800BB60012384F83530002384F83430236D9E
:10179800002B3FD0204698473CE0A36C002BE7D1B4
:1017A800EBE7E36BA3B12046984711E01A6812F4FF
:1017B800807F09D11A6822F010021A60012384F888
:1017C8003530002384F83430E36B0BB1204698475A
:1017D800636DFBB1636D13F0010F17D0052384F817
:1017E80035302268136823F001031360019B01332D
:1017F8000193AB4204D823681B6813F0010FF5D19D
:10180800012384F83530002384F83430E36C0BB1BD
:101818002046984703B0F0BD0C000020B5814E1B50
:1018280000230F2B00F2EC8030B583B068E08568A8
:101838004FEA430E032404FA0EF425EA0405CC68A3
:1018480004FA0EF42C438460446824EA02044A68CB
:10185800C2F300129A40224342605FE0DC08083479
:1018680050F8242003F00705AD004FF00F0E0EFAD4
:1018780005FE22EA0E0E0A69AA4042EA0E0240F864
:1018880024205FE0072200E0002202FA0EF22A4339
:1018980002345C4D45F824205B4A94686FEA0C02D8
:1018A80024EA0C05D1F804E01EF4801F01D04CEAAC
:1018B8000405554CA560E46802EA0405D1F804E083
:1018C8001EF4001F01D04CEA04054F4CE560646823
:1018D80002EA0405D1F804E01EF4003F01D04CEA06
:1018E8000405494C6560246822404D6815F4803F22
:1018F80001D04CEA0402444C226001330F2B7DD8FE
:1019080001229A400C6804EA020C32EA0404F4D179
:101918004C6804F00304013C012C88D94A6802F0A1
:101928000302032A09D0C4685D000322AA4024EAFE
:1019380002048A68AA402243C2604A6802F003028D
:10194800022A8BD004684FEA430E032202FA0EF2F1
:1019580024EA02044A6802F0030202FA0EF2224361
:1019680002604A6812F4403FC7D000220192274A19
:10197800546C44F480445464526C02F480420192E2
:10198800019A9C08A51C1F4A52F8255003F0030E23
:101998004FEA8E0E0F2202FA0EF225EA02051C4AC1
:1019A80090423FF471AF02F5806290421AD002F57E
:1019B8008062904218D002F58062904216D002F5FB
:1019C8008062904214D002F58062904212D002F5F3
:1019D8008062904210D002F5806290423FF452AF8C
:1019E800082252E7012250E702224EE703224CE781
:1019F80004224AE7052248E7062246E703B030BD3D
:101A0800704700BF00380140003C014000380240E8
:101A180000000240002800F0E08170B582B0044662
:101A2800036813F0010F3BD09F4B9B6803F00C0336
:101A3800042B2CD09C4B9B6803F00C03082B21D063
:101A48006368B3F5803F4FD0B3F5A02F52D0964BC3
:101A58001A6822F480321A601A6822F480221A6006
:101A68006368002B50D0FFF751FC05468E4B1B686E
:101A780013F4003F14D1FFF749FC401B6428F5D943
:101A88000320B1E1884B5B6813F4800FD8D0864BF4
:101A98001B6813F4003F03D06368002B00F09F819C
:101AA800236813F0020F54D07F4B9B6813F00C0F80
:101AB8003ED07D4B9B6803F00C03082B33D0E368C2
:101AC800002B68D0794B01221A60FFF71FFC0546EE
:101AD800754B1B6813F0020F54D1FFF717FC401B1E
:101AE8000228F5D903207FE16F4A136843F4803355
:101AF8001360B5E76C4B1A6842F480221A601A68C2
:101B080042F480321A60ABE7FFF700FC0546664BEB
:101B18001B6813F4003FC3D0FFF7F8FB401B642891
:101B2800F5D9032060E1604B5B6813F4800FC6D1E0
:101B38005D4B1B6813F0020F03D0E368012B40F0E4
:101B48005081594A136823F0F803216943EAC10315
:101B58001360236813F0080F42D063696BB3534BCB
:101B68000122C3F8802EFFF7D1FB05464E4B5B6F71
:101B780013F0020F34D1FFF7C9FB401B0228F5D937
:101B8800032031E1484A136823F0F803216943EA46
:101B9800C1031360DDE7454B00221A60FFF7B6FB6F
:101BA8000546414B1B6813F0020FD2D0FFF7AEFB7E
:101BB800401B0228F5D9032016E13C4B0022C3F84C
:101BC800802EFFF7A3FB0546374B5B6F13F0020F20
:101BD80006D0FFF79BFB401B0228F5D9032003E141
:101BE800236813F0040F77D02F4B1B6C13F0805F22
:101BF80033D1002301932C4B1A6C42F080521A64A3
:101C08001B6C03F080530193019B0125284B1B6833
:101C180013F4807F23D0A368012B34D0052B38D050
:101C2800214B1A6F22F001021A671A6F22F0040280
:101C38001A67A368002B3DD0FFF768FB06461A4BCE
:101C48001B6F13F0020F46D1FFF760FB801B41F2B8
:101C580088339842F3D90320C6E00025D6E7144A12
:101C6800136843F480731360FFF750FB0646104B6C
:101C78001B6813F4807FCED1FFF748FB801B022836
:101C8800F5D90320B0E0084A136F43F00103136746
:101C9800CFE7054B1A6F42F004021A671A6F42F039
:101CA80001021A67C5E700BF00380240000047423A
:101CB80000700040FFF72AFB0646524B1B6F13F0DB
:101CC800020F08D0FFF722FB801B41F288339842AD
:101CD800F3D9032088E0EDB9A369002B00F08380D5
:101CE800484A926802F00C02082A51D0022B17D0F9
:101CF800454B00221A66FFF709FB0446414B1B6857
:101D080013F0007F42D0FFF701FB001B0228F5D932
:101D1800032069E03B4A136C23F080531364DBE72C
:101D2800394B00221A66FFF7F1FA0546354B1B6856
:101D380013F0007F06D0FFF7E9FA401B0228F5D917
:101D4800032051E0E369226A1343626A43EA82137B
:101D5800A26A5208013A43EA0243E26A43EA02638A
:101D6800284A5360284B01221A66FFF7CFFA044627
:101D7800244B1B6813F0007F06D1FFF7C7FA001B3E
:101D88000228F5D903202FE000202DE000202BE0C9
:101D9800012B2BD01B4B5B6803F48001E269914255
:101DA80026D103F03F02216A8A4223D1616A47F6AD
:101DB800C0721A40B2EB811F1ED103F44031A26AEF
:101DC8005208013AB1EB024F18D103F07063E26A8E
:101DD800B3EB026F14D1002006E001207047012008
:101DE80002E0012000E0002002B070BD0120FBE706
:101DF8000120F9E70120F7E70120F5E70120F3E7E3
:101E08000120F1E7003802400000474208B5264BA0
:101E18009B6803F00C03042B41D0082B41D1224BC3
:101E28005A6802F03F025B6813F4800F12D01E4B11
:101E38005968C1F388111D480023A1FB0001FEF772
:101E4800C5FC194B5B68C3F3014301335B00B0FB6E
:101E5800F3F027E0144B5868C0F388104FEA401C91
:101E6800BCEB000C6EEB0E0E4FEA8E1343EA9C633C
:101E78004FEA8C11B1EB0C0163EB0E03DB0043EA74
:101E88005173C90011EB000C43F1000399020023C0
:101E98004FEA8C2041EA9C51FEF798FCD1E70348B1
:101EA80000E0034808BD00BF0038024040787D01CB
:101EB8000024F400002800F09B8070B50D4604460D
:101EC8004F4B1B6803F007038B4208D2CBB24C4A36
:101ED8001370136803F007038B4240F08B8023686C
:101EE80013F0020F17D013F0040F04D0454A93687B
:101EF80043F4E0539360236813F0080F04D0414A79
:101F0800936843F4604393603E4A936823F0F00378
:101F1800A1680B439360236813F0010F32D0636804
:101F2800012B21D09A1E012A25D9364A126812F0AF
:101F3800020F61D033498A6822F0030213438B6091
:101F4800FFF7E4F906462F4B9B6803F00C03626821
:101F5800B3EB820F16D0FFF7D9F9801B41F2883313
:101F68009842F0D9032042E0264A126812F4003F52
:101F7800E0D101203BE0234A126812F0007FD9D15A
:101F8800012034E01E4B1B6803F00703AB4207D95E
:101F9800EAB21B4B1A701B6803F00703AB422DD142
:101FA800236813F0040F06D0164A936823F4E0530D
:101FB800E1680B439360236813F0080F07D0114AB8
:101FC800936823F46043216943EAC1039360FFF7F0
:101FD8001DFF0C4B9B68C3F303130B4AD35CD8401B
:101FE8000A4B18600A4B1868FFF744F9002070BDC7
:101FF800012070470120FAE70120F8E70120F6E701
:10200800003C024000380240E02B00080C00002091
:1020180014000020014B1868704700BF0C00002016
:1020280008B5FFF7F7FF044B9B68C3F38223034A05
:10203800D35CD84008BD00BF00380240D82B000848
:1020480008B5FFF7E7FF044B9B68C3F34233034A25
:10205800D35CD84008BD00BF00380240D82B000828
:1020680030B4036A026A22F001020262426884699B
:1020780024F0730C0C6844EA0C0423F0020C8B68FF
:1020880043EA0C03114DA84203D005F58065A84228
:1020980005D123F00803CD682B4323F004030B4D2F
:1020A800A84203D005F58065A84207D122F4407202
:1020B8004D6945EA020C8A6942EA0C024260846171
:1020C8004A684263036230BC704700BF00000140A9
:1020D80030B4036A026A22F4807202624268C469F8
:1020E80024F0730C0C6844EA0C0523F400738C6824
:1020F80043EA0423114CA04203D004F58064A042B3
:1021080006D123F40063CC6843EA042323F48063F4
:102118000A4CA04203D004F58064A04207D122F4FF
:1021280040524C6942EA04128C6942EA0412426045
:10213800C5614A68C263036230BC70470000014051
:1021480030B4036A026A22F4805202624468C269A7
:1021580022F4E6420D6842EA052223F400538D6812
:1021680043EA0533094DA84203D005F58065A84226
:1021780004D124F480444D6944EA85144460C26162
:102188004A680264036230BC704700BF0000014027
:102198000368344A904212D0B0F1804F0FD0A2F5B4
:1021A8007C4290420BD002F58062904207D002F543
:1021B8008062904203D002F57842904203D123F026
:1021C80070034A681343274A90422AD0B0F1804FDF
:1021D80027D0A2F57C42904223D002F5806290423B
:1021E8001FD002F5806290421BD002F578429042DF
:1021F80017D002F57052904213D002F580629042D7
:102208000FD002F5806290420BD0A2F5983290422E
:1022180007D002F58062904203D002F580629042B6
:1022280003D123F44073CA68134323F080034A6937
:10223800134303608B68C3620B688362094B98423F
:1022480003D003F58063984201D10B69036301232E
:102258004361036913F0010F03D0036923F00103FD
:10226800036170470000014040B310B5044690F880
:102278003D30F3B1022384F83D30214651F8040B78
:10228800FFF786FF012384F8463084F83E3084F84F
:102298003F3084F8403084F8413084F8423084F884
:1022A800433084F8443084F8453084F83D300020C9
:1022B80010BD80F83C30FEF7DDFDDBE701207047FC
:1022C80040B310B5044690F83D30F3B1022384F8CA
:1022D8003D30214651F8040BFFF75AFF012384F8DB
:1022E800463084F83E3084F83F3084F8403084F833
:1022F800413084F8423084F8433084F8443084F81C
:10230800453084F83D30002010BD80F83C30FEF7A1
:1023180099FDDBE70120704730B4036A026A22F0B6
:10232800100202624468826922F4E6420D6842EAB9
:10233800052223F020038D6843EA0513114DA842B6
:1023480003D005F58065A84206D123F08003CD6847
:1023580043EA051323F040030A4DA84203D005F5CC
:102368008065A84207D124F440644D6944EA850495
:102378008D6944EA8504446082614A688263036225
:1023880030BC70470000014090F83C30012B28D049
:1023980010B50446012380F83C300C2A1CD8DFE82D
:1023A80002F0071B1B1B0C1B1B1B111B1B1B160006
:1023B8000068FFF755FE00200FE00068FFF7ACFF4C
:1023C80000200AE00068FFF783FE002005E00068AF
:1023D800FFF7B6FE002000E00120002384F83C301F
:1023E80010BD0220704738B590F83C30012B66D0FC
:1023F80004460D46012380F83C300C2A5AD8DFE801
:1024080002F0075959591B5959593059595944001B
:102418000068FFF725FE2268936943F0080393617B
:102428002268936923F004039361226893692969F8
:102438000B43936100203EE00068FFF76DFF2268C0
:10244800936943F4006393612268936923F480637A
:10245800936122689369296943EA01239361002003
:1024680029E00068FFF734FE2268D36943F00803C7
:10247800D3612268D36923F00403D3612268D36946
:1024880029690B43D361002015E00068FFF758FE67
:102498002268D36943F40063D3612268D36923F4C3
:1024A8008063D3612268D369296943EA0123D36130
:1024B800002000E00120002384F83C3038BD0220D1
:1024C800FCE701F01F014FF0010C0CFA01FC036A54
:1024D80023EA0C030362036A8A40134303627047CA
:1024E80010B504460846002942D194F83E30DBB2C4
:1024F800013B18BF0123002B6ED1002851D10223C4
:1025080084F83E30012201462068FFF7DAFF23688D
:10251800334A934203D002F58062934203D15A6C46
:1025280042F400425A6423682D4A934249D0B3F1D9
:10253800804F46D0A2F57C42934242D002F5806299
:1025480093423ED002F5806293423AD002F5784237
:10255800934236D002F57052934232D0A2F59432AB
:1025680093422ED01A6842F001021A60002032E02D
:10257800042908D008290DD094F84130DBB2013B7A
:1025880018BF0123B7E794F83F30DBB2013B18BF0F
:102598000123B0E794F84030DBB2013B18BF0123B8
:1025A800A9E7042805D0082807D0022384F8413079
:1025B800A8E7022384F83F30A4E7022384F84030D8
:1025C800A0E79A6802F00702062A07D01A6842F0C4
:1025D80001021A60002010BD0120FCE70020FAE784
:1025E8000000014090F83C20012A3CD010B403467A
:1025F800012280F83C20022280F83D2002685068C1
:10260800946820F0700C086840EA0C0050601A6862
:10261800164882421AD0B2F1804F17D0A0F57C40FC
:10262800824213D000F5806082420FD000F58060AE
:1026380082420BD000F57840824207D000F57050F6
:10264800824203D0A0F59430824204D124F0800461
:10265800496821439160012283F83D20002083F8D6
:102668003C0010BC70470220704700BF00000140CA
:10267800024690F83C30012B21D0012380F83C30F1
:10268800CB6823F440738868034323F48063486865
:10269800034323F400630868034323F48053086961
:1026A800034323F400534869034323F48043C9696F
:1026B8000B4311684B64002082F83C0070470220ED
:1026C8007047026802F10C0353E8003F23F0C0038F
:1026D8000C3242E800310029F3D1202380F8413040
:1026E8007047026802F10C0353E8003F23F490732B
:1026F8000C3242E800310029F3D1026802F11403D8
:1027080053E8003F23F00103143242E80031002966
:10271800F3D1036B012B05D0202380F8423000232E
:1027280003637047026802F10C0353E8003F23F08B
:1027380010030C3242E800310029F3D1ECE7000025
:1027480010B504460268136923F44053C1680B436B
:102758001361836802691A4343691A43C3691A43B8
:102768000168CB6823F4164323F00C031343CB60B2
:102778000268536923F4407381690B43536103680A
:10278800314A934206D002F58062934202D0FFF7A5
:1027980047FC01E0FFF754FCE369B3F5004F29D08B
:1027A8000021031849411B1841F10001C90041EA01
:1027B8005371DB00181863684FEA83024FEA93737A
:1027C80041F10001FEF702F8204AA2FB0031490955
:1027D800642303FB11031B013233A2FB03235B09B0
:1027E80003F0F00202EB011203F00F032168134417
:1027F8008B6010BD0023021843EB0301121841F14E
:102808000001C90041EA5271D200101841F10001DB
:10281800626892185B41FDF7D9FF0C4AA2FB0031B0
:102828004909642303FB1103DB003233A2FB0323B2
:102838005B095A0002F4F87202EB011203F0070375
:10284800216813448B60D4E7001001401F85EB51C9
:1028580060B310B5044690F8413013B3242384F8CC
:1028680041302268D36823F40053D3602046FFF731
:1028780067FF2268136923F4904313612268536940
:1028880023F02A0353612268D36843F40053D360CA
:1028980000206064202384F8413084F8423060636B
:1028A80010BD80F84030FEF761FCD7E70120704783
:1028B8007047704710B5846B23685A6994F84130A3
:1028C800DBB2212B10D023685A6902F0400294F839
:1028D8004230DBB2222B11D0636C43F010036364E7
:1028E8002046FFF7E6FF10BD02F08002002AEAD07A
:1028F8000023E3842046FFF7E4FEE4E7002AEBD058
:102908000023E3852046FFF7ECFEE5E7704708B5AE
:10291800806B01234363036B012B02D0FFF7C8FFD1
:1029280008BD818D4908FFF7F1FFF9E708B50346AF
:10293800806B1B681B6813F4807F2BD10023C38531
:10294800026802F10C0353E8003F23F480730C3251
:1029580042E800310029F3D1026802F1140353E878
:10296800003F23F00103143242E800310029F3D17B
:10297800026802F1140353E8003F23F040031432C5
:1029880042E800310029F3D1202380F84230036B5C
:10299800012B07D000234363036B012B0FD0FEF7F5
:1029A80011FA08BD026802F10C0353E8003F23F056
:1029B80010030C3242E800310029F3D1EAE7818D97
:1029C800FFF7A4FFEDE7000030B583B004461346D7
:1029D8008162828500254564222280F84220C26BEC
:1029E8001F48D063E26B1F481064E26B1E48D06436
:1029F800E26B156520680A46011DE06BFEF7ECFDE9
:102A0800019523681A6801925B680193019B236909
:102A18005BB1226802F10C0353E8003F43F4807372
:102A28000C3242E800310029F3D1226802F1140384
:102A380053E8003F43F00103143242E80031002913
:102A4800F3D1226802F1140353E8003F43F0400336
:102A5800143242E800310029F3D1002003B030BD20
:102A68003529000817290008BD28000808B590F87E
:102A78004230DBB2202B08D149B10AB9012008BD88
:102A880000230363FFF7A0FFF9E70220F7E701201F
:102A9800F5E702440346934200D1704703F8011B4F
:102AA800F9E7000070B50D4D0D4C641BA41000260D
:102AB800A64209D10B4D0C4C00F07EF8641BA41003
:102AC8000026A64205D170BD55F8043B984701364B
:102AD800EEE755F8043B98470136F2E7002C00086A
:102AE800002C0008002C0008082C000870477047CC
:102AF800024B13B1024800F005B87047000000000F
:102B0800192B0008002301461A46184600F014B88D
:102B180038B5074D074C641BA4101CB9BDE83840F4
:102B280000F050B8013C55F824309847F5E700BF4D
:102B3800082C00080C2C00082DE9F047DFF86CA0E1
:102B48000646DAF8000098460F469146FFF7CEFF92
:102B5800174B1C680CB9174C1C606568DAF8000044
:102B68001F2D05DDFFF7C3FF4FF0FF30BDE8F087ED
:102B78009EB104EB85010122C1F88890D4F8883110
:102B8800AA401343C4F88831022EC1F8088102BF55
:102B9800D4F88C311343C4F88C316B1C0235636054
:102BA80044F82570FFF7A3FF0020DFE71800002096
:102BB800A4010020A8010020F8B500BFF8BC08BC9B
:102BC8009E467047F8B500BFF8BC08BC9E467047E3
:102BD80000000000010203040000000000000000E3
:102BE800010203040607080900061016000610165D
:082BF8000CDCFF7F010000006E
:082C0000F92A0008AD010008EB
:042C08008901000836
:102C0C00F401F401D007F401F401F4010024F40000
:0C2C1C000100000010000000A0010020DA
:0400000508001229B4
:00000001FF
