:020000040800F2
:10000000000002207D140008511000085310000861
:100010005510000857100008591000080000000093
:100020000000000000000000000000005B1000085D
:100030005D100008000000005F100008611000085B
:10004000CD140008CD140008CD140008CD1400080C
:10005000CD140008CD140008CD140008CD140008FC
:10006000CD140008CD140008CD140008CD140008EC
:1000700069100008CD140008CD140008CD14000844
:10008000CD140008CD140008CD140008CD140008CC
:100090007D100008CD140008CD140008CD14000810
:1000A000CD140008CD140008CD140008CD140008AC
:1000B000CD140008CD140008CD140008CD1400089C
:1000C000CD140008CD140008CD140008CD1400088C
:1000D000CD140008CD140008CD140008CD1400087C
:1000E000CD140008CD140008CD140008CD1400086C
:1000F000CD140008CD140008CD140008CD1400085C
:10010000CD140008CD140008CD140008CD1400084B
:10011000CD140008CD140008CD140008CD1400083B
:10012000CD140008CD140008CD140008CD1400082B
:10013000CD140008CD140008CD140008CD1400081B
:100140008D100008CD140008CD140008CD1400084F
:10015000CD140008CD140008CD140008CD140008FB
:10016000CD140008CD140008CD140008CD140008EB
:10017000CD140008CD140008CD14000800000000C4
:08018000CD140008CD140008A5
:1001880010B5054C237833B9044B13B10448AFF3C9
:1001980000800123237010BD100000200000000023
:1001A800DC34000808B5034B1BB103490348AFF31F
:1001B800008008BD0000000014000020DC340008A6
:1001C80080F0004002E000BF81F0004142001FBF04
:1001D8005FEA410392EA030F7FEA226C7FEA236C0D
:1001E8006AD04FEA1262D2EB1363C1BFD218414002
:1001F80048404140B8BF5B42192B88BF704710F098
:10020800004F40F4000020F07F4018BF404211F03A
:10021800004F41F4000121F07F4118BF494292EAA2
:10022800030F3FD0A2F1010241FA03FC10EB0C00CE
:10023800C3F1200301FA03F100F0004302D549425B
:1002480060EB4000B0F5000F13D3B0F1807F06D308
:1002580040084FEA310102F10102FE2A51D2B1F100
:10026800004F40EBC25008BF20F0010040EA0300F5
:100278007047490040EB0000013A28BFB0F5000F75
:10028800EDD2B0FA80FCACF1080CB2EB0C0200FA2B
:100298000CF0AABF00EBC25052421843BCBFD0407A
:1002A8001843704792F0000F81F4000106BF80F4F4
:1002B80000000132013BB5E74FEA41037FEA226CB7
:1002C80018BF7FEA236C21D092EA030F04D092F082
:1002D800000F08BF0846704790EA010F1CBF0020B6
:1002E800704712F07F4F04D1400028BF40F0004013
:1002F800704712F100723CBF00F50000704700F033
:10030800004343F0FE4040F4000070477FEA226259
:1003180016BF08467FEA23630146420206BF5FEA2A
:10032800412390EA010F40F4800070474FF000032A
:1003380004E000BF10F0004348BF40425FEA000CF1
:1003480008BF704743F0964301464FF000001CE099
:1003580050EA010208BF70474FF000030AE000BFEF
:1003680050EA010208BF704711F0004302D540422D
:1003780061EB41015FEA010C02BF8446014600209F
:1003880043F0B64308BFA3F18053A3F50003BCFABA
:100398008CF2083AA3EBC25310DB01FA02FC634467
:1003A80000FA02FCC2F12002BCF1004F20FA02F26E
:1003B80043EB020008BF20F00100704702F1200261
:1003C80001FA02FCC2F1200250EA4C0021FA02F2C2
:1003D80043EB020008BF20EADC7070474FF0FF0CC7
:1003E8001CEAD0521EBF1CEAD15392EA0C0F93EAC2
:1003F8000C0F6FD01A4480EA010C400218BF5FEA64
:1004080041211ED04FF0006343EA501043EA5111D6
:10041800A0FB01310CF00040B1F5000F3EBF4900D0
:1004280041EAD3715B0040EA010062F17F02FD2AD4
:100438001DD8B3F1004F40EBC25008BF20F00100B7
:10044800704790F0000F0CF0004C08BF49024CEACE
:10045800502040EA51207F3AC2BFD2F1FF0340EA60
:10046800C250704740F400004FF00003013A5DDCD1
:1004780012F1190FDCBF00F000407047C2F1000212
:10048800410021FA02F1C2F1200200FA02FC5FEAFF
:10049800310040F1000053EA4C0308BF20EADC7049
:1004A800704792F0000F00F0004C02BF400010F4BB
:1004B800000F013AF9D040EA0C0093F0000F01F068
:1004C800004C02BF490011F4000F013BF9D041EA8A
:1004D8000C018FE70CEAD15392EA0C0F18BF93EA8C
:1004E8000C0F0AD030F0004C18BF31F0004CD8D1B6
:1004F80080EA010000F00040704790F0000F17BF3D
:1005080090F0004F084691F0000F91F0004F14D082
:1005180092EA0C0F01D142020FD193EA0C0F03D1DA
:100528004B0218BF084608D180EA010000F00040DD
:1005380040F0FE4040F40000704740F0FE4040F4B8
:10054800400070474FF0FF0C1CEAD0521EBF1CEA57
:10055800D15392EA0C0F93EA0C0F69D0A2EB030275
:1005680080EA010C49024FEA402037D04FF080530F
:1005780043EA111143EA10130CF000408B4238BFD4
:100588005B0042F17D024FF4000C8B4224BF5B1AE2
:1005980040EA0C00B3EB510F24BFA3EB510340EA30
:1005A8005C00B3EB910F24BFA3EB910340EA9C00DE
:1005B800B3EBD10F24BFA3EBD10340EADC001B014E
:1005C80018BF5FEA1C1CE0D1FD2A3FF650AF8B42F2
:1005D80040EBC25008BF20F0010070470CF0004CFF
:1005E8004CEA50207F32C2BFD2F1FF0340EAC2502A
:1005F800704740F400004FF00003013A37E792F0EB
:10060800000F00F0004C02BF400010F4000F013A48
:10061800F9D040EA0C0093F0000F01F0004C02BF43
:10062800490011F4000F013BF9D041EA0C0195E7AC
:100638000CEAD15392EA0C0F08D142027FF47DAF45
:1006480093EA0C0F7FF470AF084676E793EA0C0F35
:1006580004D14B023FF44CAF08466EE730F0004C33
:1006680018BF31F0004CCAD130F000427FF45CAFC3
:1006780031F000437FF43CAF5FE700BF53B94AB99C
:10068800002908BF00281CBF4FF0FF314FF0FF3092
:1006980000F06AB9ADF1080C6DE904CE00F006F877
:1006A800DDF804E0DDE9022304B070472DE9F047E6
:1006B800089D0C46002B4ED194468C458646B2FACE
:1006C80082F262D94AB1C2F12003914020FA03F3C1
:1006D8000CFA02FC194300FA02FE4FEA1C471FFA03
:1006E8008CF6B1FBF7F44FEA1E4307FB141143EAFB
:1006F800014304FB06F199420AD91CEB030304F1F8
:10070800FF3080F01281994240F20F81023C63442D
:10071800591A1FFA8EF3B1FBF7F007FB101143EAE1
:10072800014300FB06F69E420AD91CEB030300F1C5
:10073800FF3180F0FC809E4240F2F9806344023829
:100748009B1B40EA044000211DB1D3400022C5E9AB
:100758000032BDE8F0878B4205D90DB1C5E900012B
:1007680000210846F5E7B3FA83F1002946D1A342F0
:1007780002D39042C0F0F080861A64EB0303012094
:10078800002DE6D0C5E90063E3E7002A40F0908039
:10079800A1EB0C044FEA1C481FFA8CF70121B4FBAB
:1007A800F8F64FEA1E4308FB164443EA044307FBE6
:1007B80006F0984208D91CEB030306F1FF3402D275
:1007C800984200F2CD8026461C1A1FFA8EF3B4FB1D
:1007D800F8F008FB104443EA044300FB07F79F4284
:1007E80008D91CEB030300F1FF3402D29F4200F248
:1007F800B0802046DB1B40EA0640A5E7C1F1200691
:100808008B4022FA06F71F4320FA06FC04FA01F38C
:1008180043EA0C03F44000FA01F8380C4FEA134994
:10082800B4FBF0FE1FFA87FC00FB1E4449EA0444AF
:100838000EFB0CF9A14502FA01F20AD93C190EF196
:10084800FF3A80F08480A14540F28180AEF1020E2B
:100858003C44A4EB09041FFA83F9B4FBF0F300FB52
:10086800134449EA044403FB0CFCA44507D93C198A
:1008780003F1FF3067D2A44565D9023B3C4443EA03
:100888000E40A0FB0293A4EB0C049C42CE469C466F
:1008980051D34ED055B1B8EB0E0364EB0C0404FAF7
:1008A80006F6CB401E43CC40C5E90064002150E762
:1008B800C2F1200320FA03F10CFA02FC24FA03F334
:1008C80094400C434FEA1C4800FA02FE1FFA8CF7CA
:1008D800B3FBF8F008FB1031230C43EA014300FB9B
:1008E80007F1994208D91CEB030300F1FF362CD21B
:1008F80099422AD9023863445B1AA4B2B3FBF8F1CF
:1009080008FB113344EA034401FB07F3A34208D967
:100918001CEB040401F1FF3613D2A34211D90239AA
:100928006444E41A41EA004139E70446F0E608461F
:1009380006E7C845AED2B9EB020E63EB070C0138E7
:10094800A8E73146EDE7034699E73046D4E7D646AF
:100958007FE7634402384DE70646234608460FE71B
:10096800023E634430E700BF704700BF10B58AB04D
:1009780001220892002306930792009301930293A1
:10098800039305930493074C6946204600F0A8FE9C
:10099800204600F043FF0221204601F097F80AB0F4
:1009A80010BD00BFEC00002000B585B001900846DE
:1009B8001249086000208860C86008200861104853
:1009C8000370C3F3072C80F801C0C3F3074C80F809
:1009D80002C0C3F30763C3700271C2F307234371F4
:1009E800C2F307438371C2F30762C27103AB0246C5
:1009F80001A800F041FF05B05DF804FB2C000020C1
:100A08004400002000B583B00C49086000238B60C7
:100A1800CB6008230B610A4AFF231370537093704D
:100A2800D370137153719371FC23D37101AB0548D3
:100A380000F022FF03B05DF804FB00BF2C0000208B
:100A480044000020EC0000200A784B7843EA022397
:100A580003808A78CB7843EA022343800A794B796A
:100A680043EA022383808B79C3807047F8B5074631
:100A78000C461E461046FFF7A7FB05463846FFF70B
:100A880059FC2946FFF7AAFC05460120B040013869
:100A9800FFF750FC01462846FFF754FD2146FFF7B3
:100AA80095FBF8BDF8B504460D464B78887840EAC2
:100AB80003202060CB780F793F0947EA0317E760E6
:100AC8000E79360206F470664B791E43A6610C490E
:100AD80010230A46FFF7CAFF60620C23094A0A4935
:100AE8003846FFF7C3FF206308490C230A463046FF
:100AF800FFF7BCFFE0632B78A4F84830F8BD00BFCF
:100B08000000484100003442000034C20000904117
:100B180000B58BB001AB03AA002100F022FF039AB5
:100B280040F201239A4218D0039A40F202239A42D3
:100B380018D0039A40F203239A4218D0039BB3F5C6
:100B4800017F19D0039A40F205239A4219D0039BDA
:100B5800022B1BD00BB05DF804FB01A90E48FFF770
:100B680073FFE1E701A90D48FFF76EFFE1E701A96F
:100B78000B48FFF769FFE1E701A90A48FFF764FF9F
:100B8800E0E701A90848FFF75FFFE0E701A9074888
:100B9800FFF788FFDEE700BFB0000020A8000020B4
:100BA800A000002098000020B80000204C00002081
:100BB80008B50D480D4B0360022343600023836092
:100BC800C3604FF4702202614FF440124261037611
:100BD80043768376C3760377437700F0DBFC00B96E
:100BE80008BD00F01DF9FBE7EC00002000640040A0
:100BF80008B50D480D4B0360022343600023836052
:100C0800C3604FF4702202614FF4401242610376D0
:100C180043768376C3760377437700F0BBFC00B94D
:100C280008BD00F0FDF8FBE7C400002000680040A4
:100C380010B58AB000230593069307930893099388
:100C480003683D4A934204D03C4A934234D00AB0E8
:100C580010BD3B4A136801331360012B1FD00024D9
:100C68000194384B1A6B42F008021A631B6B03F0AD
:100C780008030193019B032305930222069208931C
:100C88000923099305A9304801F0E8FA22462146CC
:100C9800142001F0B3F8142001F0C0F8D7E70023BE
:100CA8000093284B1A6C42F000721A641B6C03F014
:100CB80000730093009BD2E700230293214B1A6C28
:100CC80042F080621A641B6C03F080630293029BFB
:100CD8001B4A136801331360012B20D000240494AD
:100CE800184B1A6B42F002021A631B6B03F00203E3
:100CF8000493049B6023059302230693032308931C
:100D08000923099305A9114801F0A8FA22462146AA
:100D1800402001F073F8402001F080F897E70023A5
:100D28000393084B1A6C42F000721A641B6C03F0B0
:100D380000730393039BD1E7006400400068004000
:100D4800C000002000380240000C024000040240AD
:100D580000B583B000210191094B1A6B42F40012CF
:100D68001A631B6B03F400130193019B0A460C20C2
:100D780001F044F80C2001F051F803B05DF804FBD1
:100D88000038024088B000220192244B196B41F0D0
:100D980002011963196B01F0020101910199029294
:100DA800196B41F001011963196B01F001010291FE
:100DB80002990392196B41F008011963196B01F04C
:100DC8000801039103990492196B41F00401196316
:100DD800196B01F00401049104990592196B41F40F
:100DE80080711963196B01F4807105910599069258
:100DF800196B41F080011963196B01F080010691AC
:100E0800069907921A6B42F010021A631B6B03F0E3
:100E180010030793079B08B0704700BF00380240D3
:100E280072B6FEE700B595B03022002108A802F09E
:100E3800BEFA002303930493059306930793019343
:100E48001F4A116C41F080511164126C02F08052FB
:100E58000192019A02931B4A116841F48041116082
:100E6800126802F480420292029A02220892012138
:100E78000B9110210C910E920F9308231093A82325
:100E8800119312920423139308A801F0E1FA98B978
:100E98000F23039302230493002305934FF4A053D5
:100EA80006934FF480530793052103A801F020FD12
:100EB80020B915B05DF804FBFFF7B2FFFFF7B0FFEC
:100EC800003802400070004008B500F023FBFFF72F
:100ED800A9FFFFF757FFFFF73BFF00F06DF900F0A0
:100EE800E5F900F051FAFFF763FEFFF781FEFFF71F
:100EF8003DFD12221349144802F046FA40F201104F
:100F0800FFF780FD0A2000F031FB06E040F20110F7
:100F1800FFF778FD0A2000F029FB0C4BB3F94830A5
:100F2800012BF3D140F20110FFF76CFD00221346AC
:100F380040F201110648FFF737FD0A2000F016FBC2
:100F4800F0E700BF14010020300200204C00002010
:100F5800EC000020264B1978587841EA0021C1F3AB
:100F68000A01A1F58061234A11809978C00840EAF6
:100F78004110C0F30A00A0F580605080D878890934
:100F880041EA8001187941EA8021C1F30A01A1F5FB
:100F9800806191805979400840EAC110C0F30A0085
:100FA800A0F58060D08088091072C1F301115172D8
:100FB8009979D87941EA00215181197A587A41EA18
:100FC80000219181997AD87A41EA0021D181197B4F
:100FD8001174597B5174997BD87B41EA0021518265
:100FE800197C5B7C41EA0323A3F5806393827047F5
:100FF800140100202801002008B50268034B9A421A
:1010080000D008BDFFF7A6FFFBE700BF004800407F
:1010180082B0002100910B4B5A6C42F480425A6412
:101028005A6C02F480420092009A01911A6C42F0C4
:1010380080521A641B6C03F080530193019B02B029
:10104800704700BF00380240FEE7FEE7FEE7FEE714
:10105800FEE770477047704708B500F075FA08BD9D
:1010680008B5034801F00CF8FFF774FF08BD00BF8E
:10107800D001002008B5024800F046FD08BD00BFB9
:10108800EC00002008B5024800F03EFD08BD00BF96
:10109800C4000020704700000268094B9A4200D043
:1010A800704782B000230193064B5A6C42F001024C
:1010B8005A645B6C03F001030193019B02B0704713
:1010C80000000140003802400268094B9A4200D0F3
:1010D800704782B000230193064B5A6C42F002021B
:1010E8005A645B6C03F002030193019B02B07047E2
:1010F8000004014000380240F0B589B00023039392
:1011080004930593069307930368254A934204D0F2
:10111800244A934219D009B0F0BD00230093224B12
:101128001A6B42F010021A631B6B03F01003009352
:10113800009B4FF4D44303930223049301230793A2
:1011480003A91A4801F08AF8E5E700240194164B30
:101158001A6B42F480721A631A6B02F4807201925D
:10116800019A02941A6B42F004021A631B6B03F093
:1011780004030293029B4027039702260496032543
:10118800079503A90A4801F069F80397049605949E
:101198000694079503A9074801F060F8BBE700BF6C
:1011A80000000140000401400038024000100240E5
:1011B800002002400008024010B592B000241094AC
:1011C800119409940A940B940C940D940E940F9412
:1011D8002022214601A802F0EAF83248324B036087
:1011E800A7234360846044F61F63C36004614461BD
:1011F800846101F083FD00283ED1002310931193F0
:1012080010A9284801F07CFE002838D160230993F2
:101218004FF4FA630A9300220B920C920D920E92ED
:101228000F9209A91F4801F0FCFD58BB042209A927
:101238001C4801F0F6FD40BB082209A9194801F035
:10124800F0FD28BB0C2209A9164801F0EAFD10BBE5
:101258000023019302930393049305934FF40052E0
:101268000692089301A90F4801F090FEB0B90D4805
:10127800FFF742FF12B010BDFFF7D2FDBDE7FFF741
:10128800CFFDC3E7FFF7CCFDD0E7FFF7C9FDD3E7F4
:10129800FFF7C6FDD6E7FFF7C3FDD9E7FFF7C0FDA7
:1012A800E5E700BF880100200000014010B592B0BA
:1012B80000241094119409940A940B940C940D949E
:1012C8000E940F942022214601A802F070F82C48B1
:1012D8002C4B0360446084604FF6FF73C360046165
:1012E8004461846101F0DEFC002836D1244801F015
:1012F80005FD002834D100231093119310A920482C
:1013080001F0FEFD00282ED1002209920A920B92CC
:101318000C920D920E920F9209A9194801F052FDF4
:1013280020BB60230993042209A9154801F079FD1F
:10133800F8B90023019302930393049305934FF4A0
:1013480000520692089301A90D4801F01FFE98B9B2
:101358000B48FFF7D1FE12B010BDFFF761FDC5E7DE
:10136800FFF75EFDC7E7FFF75BFDCDE7FFF758FD29
:10137800D7E7FFF755FDDCE7FFF752FDE8E700BFC9
:10138800400100200004014008B50A480A4B0360E8
:101398000A4B436000238360C36003610C224261EF
:1013A8008361C36101F0E2FE00B908BDFFF738FDB3
:1013B800FBE700BF3002002000480040A086010083
:1013C80030B589B0002303930493059306930793DC
:1013D8000268244B9A4201D009B030BD044600256A
:1013E800019503F5F8331A6C42F480221A641A6CDA
:1013F80002F480220192019A02951A6B42F00402CB
:101408001A631B6B03F004030293029B4FF44063BF
:10141800039302230493032306930723079303A943
:10142800114800F01BFF1148114B03604FF0006397
:1014380043608560C5604FF48063036145618561E1
:101448004FF48073C3614FF440330362456200F088
:101458007BFD18B9054BE3639C63BDE7FFF7E0FC30
:10146800F8E700BF0048004000080240D001002013
:1014780028600240DFF834D0FFF70CFE0C480D4915
:101488000D4A002302E0D458C4500433C4188C42D7
:10149800F9D30A4A0A4C002301E013600432A2423D
:1014A800FBD301F08DFFFFF70FFD7047000002200E
:1014B800000000201000002028350008100000203F
:1014C80014040020FEE7000010B504460E4B1A78FD
:1014D8004FF47A73B3FBF2F30C4A1068B0FBF3F0E5
:1014E80000F0A0FC68B90F2C01D901200AE0002205
:1014F80021464FF0FF3000F081FC054B1C600020B6
:1015080000E0012010BD00BF040000200000002002
:101518000800002008B50B4B1A6842F400721A60E4
:101528001A6842F480621A601A6842F480721A607B
:10153800032000F051FC0F20FFF7C6FFFFF768FDFE
:10154800002008BD003C0240034A1168034B1B7889
:101558000B441360704700BF78020020040000208D
:10156800014B1868704700BF7802002038B5044660
:10157800FFF7F6FF0546B4F1FF3F02D0044B1B7896
:101588001C44FFF7EDFF401BA042FAD338BD00BF53
:1015980004000020002800F0A18038B5044690F827
:1015A8002030D3B12268136843F001031360FFF7BA
:1015B800D7FF054623685A6812F0010F10D1FFF7CC
:1015C800CFFF401B0A28F5D9636A43F400336362EE
:1015D800052384F82030012038BDFFF729FBE1E717
:1015E8001A6822F002021A60FFF7BAFF054623685C
:1015F8005A6812F0020F0DD0FFF7B2FF401B0A28FD
:10160800F5D9636A43F400336362052384F8203014
:101618000120E1E7227E012A3DD01A6822F08002EB
:101628001A60637E012B3BD02268136823F04003C5
:101638001360A37E012B39D02268136823F020039E
:101648001360E37E012B37D02268136843F0100340
:101658001360237F012B35D02268136823F0080319
:101668001360637F012B33D02268136823F00403CF
:101678001360A368E2681343226913436269134342
:101688006268013A21681343CB610020606201233C
:1016980084F82030A0E71A6842F080021A60C0E798
:1016A8002268136843F040031360C2E72268136896
:1016B80043F020031360C4E72268136823F0100383
:1016C8001360C6E72268136843F008031360C8E78D
:1016D8002268136843F004031360CAE701207047C7
:1016E80090F82030013BDBB2012B05D9436A43F463
:1016F800802343620120704710B5474BD3F800227E
:1017080042F00102C3F80022D3F8002222F47C52EE
:10171800C3F80022D3F80022486A42EA0022C3F83C
:1017280000224A6902F01F02012000FA02F2D3F8EF
:101738001C026FEA020C20EA0200C3F81C02CB6903
:10174800CBB9354BD3F80C020CEA0000C3F80C02F5
:101758008C884869D1F80CE044EA0E44483043F8D4
:1017680030408C68088840EA04404C6904F1480E0F
:1017780003EBCE035860CB69012B1ED08B69002B7D
:1017880035D12548D0F804320CEA0303C0F80432F6
:101798000B699BBB2048D0F814320CEA0303C0F84D
:1017A80014320B6A012B30D01B4AD2F8003223F0D6
:1017B8000103C2F80032002010BD174BD3F80C0209
:1017C8001043C3F80C028C884869D1F800E044EA59
:1017D8000E44483043F8304088894C69D1F808E015
:1017E80040EA0E40483403EBC4035860C6E70A4891
:1017F800D0F804321343C0F80432C9E70648D0F8D9
:1018080014321343C0F81432CBE70349D1F81C3221
:101818001343C1F81C32C7E70064004070B50446A2
:1018280090F82050EDB2012D06D0436A43F400230E
:1018380043620125284670BD022380F820300268E3
:10184800136823F001031360FFF78AFE0646236836
:101858005B6813F0010F0CD0FFF782FE831B0A2B85
:10186800F5D9636A43F400336362052384F82030B2
:10187800E0E700256562DDE730B590F820C0046830
:10188800A4680CF1FF3C5FFA8CFCBCF1010F62D834
:1018980014F0E05F59D0C4F3016C012404FA0CF48D
:1018A8001C608B68002B3DD10D68CB68046843EA47
:1018B80045550CF118031B01E55003680C690CF140
:1018C800180E03EB0E135C600B7D012B35D0D1791C
:1018D80093791B0443EA0163517943EA012314799C
:1018E8000168234301EB0C11C1F88C31D17893784E
:1018F8001B0443EA0163517843EA01231178026823
:101908000B4302EB0C12C2F8883102680CF1180C78
:101918004FEA0C1C52F80C3043F0010342F80C302B
:1019280000201DE04C6843EAC403CC6823430CF153
:101938001804240105682B51BFE7036803EB0E1355
:10194800596841F480715960C1E7436A43F4001350
:101958004362012004E0436A43F480234362012088
:1019680030BD90F820C00CF1FF3C5FFA8CFCBCF154
:10197800010F00F2A58030B451B90468E46814F08E
:10198800030F10D1436A43F40013436201207EE041
:101998000468246914F0030F05D1436A43F4001363
:1019A8004362012073E0056801F11B0424012C59EE
:1019B80004F004049460002C6BD1056801F11B0449
:1019C80024012C59640D1460046801F11B0C4FEAC2
:1019D8000C1C54F80C4004F00204D4600468A444BD
:1019E800DCF8045015F0080F5BD008241461046873
:1019F80001F11B0C04EB0C146468C4F30724946114
:101A0800046804EB0C146468240C5461026802EB4B
:101A18000112D2F8B8211A70026802EB0112D2F84A
:101A2800B821C2F307225A70026802EB0112D2F8F9
:101A3800B821C2F307429A70026802EB0112D2F889
:101A4800B821120EDA70026802EB0112D2F8BC213A
:101A58001A71026802EB0112D2F8BC21C2F3072204
:101A68005A71026802EB0112D2F8BC21C2F3074294
:101A78009A71026802EB0112D2F8BC21120EDA71D7
:101A8800C1B90268D36843F02003D360002030BC9A
:101A98007047056801F11B0424012C59E4085460BF
:101AA80092E701F11B0504EB0514646804F00F04C8
:101AB80014619CE70268136943F020031361E5E7AA
:101AC800436A43F4802343620120704790F8203032
:101AD800013BDBB2012B05D9436A43F480234362FF
:101AE80001207047026853690B4353610020704717
:101AF8007047704770477047704770477047704726
:101B080070477047704770472DE9F84F05460368DE
:101B18005C69D3F804809F68D3F80CB0D3F810A0A0
:101B2800D3F8189014F001063BD017F0010616D030
:101B380001229A6017F0020F08D117F0040F0CD198
:101B480017F0080606D04FF4805608E0FFF7D0FFDC
:101B5800002604E0FFF7CFFF01E04FF4006617F41A
:101B6800807F0DD02B684FF480729A6017F4007F45
:101B780040F0868017F4806F00F0868046F40056A7
:101B880017F4803F0DD02B684FF480329A6017F419
:101B9800003F40F0838017F4802F00F0838046F4E4
:101BA800004614F0080F07D01BF0100F04D046F4BD
:101BB80000762B681022DA6014F0040F02D01BF0B4
:101BC800080F79D114F0020F04D02B68DB6813F0EA
:101BD800030F78D114F0400F07D01AF0100F04D07B
:101BE80046F480662B6810221A6114F0200F02D088
:101BF8001AF0080F6BD114F0100F04D02B681B6972
:101C080013F0030F6AD114F4003F02D018F0100F3C
:101C180068D114F4803F02D018F0080F69D114F489
:101C2800004F7AD018F0040F74D014F4807F04D0D9
:101C380019F0010F01D046F0010614F4007F04D01A
:101C480019F0020F01D046F0020614F4806F04D098
:101C580019F0040F01D046F0040614F4006F59D0AF
:101C680019F0700956D0B9F1400F65D058D8B9F1BC
:101C7800200F5ED0B9F1300F42D146F0200644E083
:101C88002846FFF736FF7BE717F4006F02D046F4CB
:101C9800804675E72846FFF72FFF71E72846FFF7CC
:101CA80029FF7EE717F4002F02D046F4803678E744
:101CB8002846FFF722FF74E72B680822DA602846D7
:101CC800FFF71CFF7EE72846FEF722FF82E72B6816
:101CD80008221A612846FFF713FF8CE72846FFF70A
:101CE8000EFF90E72B6810225A602846FFF709FF7D
:101CF8008FE72B6808225A602846FFF703FF8EE714
:101D0800B9F1100F01D146F008062A68936923F04B
:101D1800700393612B6804225A609EB9BDE8F88F5E
:101D2800B9F1500F0BD0B9F1600FEED146F48076BF
:101D3800EBE746F01006E8E746F04006E5E746F030
:101D48008006E2E76B6A33436B622846FFF7DBFEE7
:101D5800E4E70000002807DB00F01F024009012328
:101D68009340024A42F82030704700BF00E100E08B
:101D7800002808DB0901C9B200F1604000F56140A4
:101D880080F80013704700F00F000901C9B2014B39
:101D98001954704714ED00E000B500F00700C0F1D9
:101DA800070CBCF1040F28BF4FF0040C031D062BD1
:101DB8000FD9C31E4FF0FF3E0EFA0CF021EA0001C6
:101DC80099400EFA03FE22EA0E0241EA02005DF88B
:101DD80004FB0023EEE70000074AD36823F4E0631E
:101DE8001B041B0C000200F4E060034343F0BF63D4
:101DF80043F40033D360704700ED00E010B50446AB
:101E0800054BD868C0F30220FFF7C6FF01462046FD
:101E1800FFF7AEFF10BD00BF00ED00E008B5FFF70B
:101E280099FF08BD0138B0F1807F0BD24FF0E02355
:101E38005861054AF02182F8231000209861072292
:101E48001A6170470120704700ED00E030B4056862
:101E58002C6824F480242C60046863608368402B19
:101E680005D0036899600368DA6030BC704703687E
:101E78009A600368D960F8E710B40368D9B21039DA
:101E88000B4AA2FB014212090A4CA25CC2655F29F7
:101E980008D923F47F7323F0030304338365806D2B
:101EA80010BC704723F47F7323F003038365F6E7C0
:101EB800ABAAAAAA0C350008836A826992B9012BD9
:101EC8000AD0022B02D00BB100207047C36A13F06E
:101ED800807F28D100207047C36AB3F1C07F24D027
:101EE80000207047B2F5005F09D0022B25D9032BDB
:101EF80025D1C36A13F0807F23D100207047032BBC
:101F080003D8DFE803F01404140A00207047C36AFA
:101F180013F0807F0DD100207047C36AB3F1C07FF2
:101F280009D0002070470120704701207047012028
:101F3800704701207047012070470120704700203A
:101F4800704701207047000070B50446FFF708FB92
:101F5800002C5BD00546022384F83530002384F832
:101F680034302268136823F00103136023681A6869
:101F780012F0010F0AD0FFF7F3FA431B052BF5D92E
:101F880020236365032084F8350070BD1A68204952
:101F980011406268A0680243E06802432069024376
:101FA80060690243A0690243E0690243206A024370
:101FB8000A43616A04291ED01A602668756925F0EB
:101FC8000705636A1D43042B07D1A36A1D43E36A0F
:101FD8001BB12046FFF770FF90B975612046FFF7E7
:101FE8004BFFE26D3F23934083600020606501232F
:101FF80084F83530C9E7E16A206B01430A43DBE71F
:1020080040236365012084F83500BEE70120BCE762
:102018003F8010F038B50446856D90F834000128EB
:102028002BD0012084F8340094F83500C0B2012880
:1020380004D0002384F83430022038BD022084F80C
:102048003500002060652046FFF700FFE26D3F2362
:102058009340AB602268136843F016031360236C47
:1020680023B12268136843F00803136022681368D9
:1020780043F0010313600020DFE70220DDE70000E2
:10208800F0B583B0044600230193724B1D68724B70
:10209800A3FB0535AD0A876D3E68C26D08239340E2
:1020A800334210D003681A6812F0040F0BD01A6874
:1020B80022F004021A60C26D08239340BB60436D8E
:1020C80043F001034365E26D01239340334209D095
:1020D8002268526912F0800F04D0BB60636D43F030
:1020E80002036365E26D04239340334209D02268FA
:1020F800126812F0020F04D0BB60636D43F0040352
:102108006365E26D10239340334224D0226812683D
:1021180012F0080F1FD0BB6023681A6812F4802FD2
:102128000DD01B6813F4002F04D1236C9BB12046FB
:10213800984710E0A36C73B1204698470BE01A68E3
:1021480012F4807F03D11A6822F008021A60236C07
:102158000BB120469847E26D20239340334255D077
:102168002268126812F0100F50D0BB6094F8353016
:10217800DBB2052B0ED023681A6812F4802F33D0F7
:102188001B6813F4002F2AD1636C002B3ED0204625
:1021980098473BE02268136823F01603136022680F
:1021A800536923F080035361236CA3B12268136839
:1021B80023F008031360E26D3F239340BB600123C3
:1021C80084F83530002384F83430236D002B3FD059
:1021D800204698473CE0A36C002BE7D1EBE7E36B84
:1021E800A3B12046984711E01A6812F4807F09D1FC
:1021F8001A6822F010021A60012384F8353000238F
:1022080084F83430E36B0BB120469847636DFBB11B
:10221800636D13F0010F17D0052384F83530226859
:10222800136823F001031360019B01330193AB4250
:1022380004D823681B6813F0010FF5D1012384F833
:102248003530002384F83430E36C0BB120469847CE
:1022580003B0F0BD00000020B5814E1B00230F2BFA
:1022680000F2EC8030B583B068E085684FEA430E31
:10227800032404FA0EF425EA0405CC6804FA0EF4E3
:102288002C438460446824EA02044A68C2F30012BA
:102298009A40224342605FE0DC08083450F824206A
:1022A80003F00705AD004FF00F0E0EFA05FE22EA07
:1022B8000E0E0A69AA4042EA0E0240F824205FE0A6
:1022C800072200E0002202FA0EF22A4302345C4D93
:1022D80045F824205B4A94686FEA0C0224EA0C054E
:1022E800D1F804E01EF4801F01D04CEA0405554CD7
:1022F800A560E46802EA0405D1F804E01EF4001FB2
:1023080001D04CEA04054F4CE560646802EA040514
:10231800D1F804E01EF4003F01D04CEA0405494C12
:102328006560246822404D6815F4803F01D04CEA6E
:102338000402444C226001330F2B7DD801229A40BD
:102348000C6804EA020C32EA0404F4D14C6804F084
:102358000304013C012C88D94A6802F00302032ACD
:1023680009D0C4685D000322AA4024EA02048A68EE
:10237800AA402243C2604A6802F00302022A8BD0B4
:1023880004684FEA430E032202FA0EF224EA02041A
:102398004A6802F0030202FA0EF2224302604A6817
:1023A80012F4403FC7D000220192274A546C44F4EB
:1023B80080445464526C02F480420192019A9C0851
:1023C800A51C1F4A52F8255003F0030E4FEA8E0E43
:1023D8000F2202FA0EF225EA02051C4A90423FF447
:1023E80071AF02F5806290421AD002F58062904285
:1023F80018D002F58062904216D002F580629042B1
:1024080014D002F58062904212D002F580629042A8
:1024180010D002F5806290423FF452AF082252E792
:10242800012250E702224EE703224CE704224AE742
:10243800052248E7062246E703B030BD704700BFD3
:1024480000380140003C01400038024000000240D2
:10245800002800F0E08170B582B00446036813F0EC
:10246800010F3BD09F4B9B6803F00C03042B2CD02F
:102478009C4B9B6803F00C03082B21D06368B3F5D1
:10248800803F4FD0B3F5A02F52D0964B1A6822F454
:1024980080321A601A6822F480221A606368002B5E
:1024A80050D0FFF75DF805468E4B1B6813F4003FCC
:1024B80014D1FFF755F8401B6428F5D90320B1E182
:1024C800884B5B6813F4800FD8D0864B1B6813F4D5
:1024D800003F03D06368002B00F09F81236813F04E
:1024E800020F54D07F4B9B6813F00C0F3ED07D4BEE
:1024F8009B6803F00C03082B33D0E368002B68D0EB
:10250800794B01221A60FFF72BF80546754B1B68BB
:1025180013F0020F54D1FFF723F8401B0228F5D916
:1025280003207FE16F4A136843F480331360B5E7F3
:102538006C4B1A6842F480221A601A6842F480329E
:102548001A60ABE7FFF70CF80546664B1B6813F4F7
:10255800003FC3D0FFF704F8401B6428F5D90320D7
:1025680060E1604B5B6813F4800FC6D15D4B1B685C
:1025780013F0020F03D0E368012B40F05081594A51
:10258800136823F0F803216943EAC1031360236841
:1025980013F0080F42D063696BB3534B0122C3F8A1
:1025A800802EFEF7DDFF05464E4B5B6F13F0020FE2
:1025B80034D1FEF7D5FF401B0228F5D9032031E1BD
:1025C800484A136823F0F803216943EAC1031360FA
:1025D800DDE7454B00221A60FEF7C2FF0546414B76
:1025E8001B6813F0020FD2D0FEF7BAFF401B022877
:1025F800F5D9032016E13C4B0022C3F8802EFEF7E4
:10260800AFFF0546374B5B6F13F0020F06D0FEF79E
:10261800A7FF401B0228F5D9032003E1236813F024
:10262800040F77D02F4B1B6C13F0805F33D100233E
:1026380001932C4B1A6C42F080521A641B6C03F005
:1026480080530193019B0125284B1B6813F4807F5D
:1026580023D0A368012B34D0052B38D0214B1A6F17
:1026680022F001021A671A6F22F004021A67A3689F
:10267800002B3DD0FEF774FF06461A4B1B6F13F074
:10268800020F46D1FEF76CFF801B41F28833984257
:10269800F3D90320C6E00025D6E7144A136843F4AB
:1026A80080731360FEF75CFF0646104B1B6813F43B
:1026B800807FCED1FEF754FF801B0228F5D9032076
:1026C800B0E0084A136F43F001031367CFE7054BE7
:1026D8001A6F42F004021A671A6F42F001021A6771
:1026E800C5E700BF003802400000474200700040C4
:1026F800FEF736FF0646524B1B6F13F0020F08D049
:10270800FEF72EFF801B41F288339842F3D903204D
:1027180088E0EDB9A369002B00F08380484A9268ED
:1027280002F00C02082A51D0022B17D0454B002288
:102738001A66FEF715FF0446414B1B6813F0007F2D
:1027480042D0FEF70DFF001B0228F5D9032069E0EF
:102758003B4A136C23F080531364DBE7394B0022A8
:102768001A66FEF7FDFE0546354B1B6813F0007F21
:1027780006D0FEF7F5FE401B0228F5D9032051E0EC
:10278800E369226A1343626A43EA8213A26A52081F
:10279800013A43EA0243E26A43EA0263284A536081
:1027A800284B01221A66FEF7DBFE0446244B1B6801
:1027B80013F0007F06D1FEF7D3FE001B0228F5D9DF
:1027C80003202FE000202DE000202BE0012B2BD050
:1027D8001B4B5B6803F48001E269914226D103F048
:1027E8003F02216A8A4223D1616A47F6C0721A40C1
:1027F800B2EB811F1ED103F44031A26A5208013A9C
:10280800B1EB024F18D103F07063E26AB3EB026FC9
:1028180014D1002006E001207047012002E00120C9
:1028280000E0002002B070BD0120FBE70120F9E7BD
:102838000120F7E70120F5E70120F3E70120F1E7A0
:10284800003802400000474208B5264B9B6803F059
:102858000C03042B41D0082B41D1224B5A6802F0BB
:102868003F025B6813F4800F12D01E4B5968C1F306
:1028780088111D480023A1FB0001FDF7FFFE194B3D
:102888005B68C3F3014301335B00B0FBF3F027E05F
:10289800144B5868C0F388104FEA401CBCEB000C7E
:1028A8006EEB0E0E4FEA8E1343EA9C634FEA8C11CF
:1028B800B1EB0C0163EB0E03DB0043EA5173C90073
:1028C80011EB000C43F10003990200234FEA8C201E
:1028D80041EA9C51FDF7D2FED1E7034800E00348E6
:1028E80008BD00BF0038024040787D010024F40094
:1028F800002800F09B8070B50D4604464F4B1B68BE
:1029080003F007038B4208D2CBB24C4A137013680A
:1029180003F007038B4240F08B80236813F0020F0B
:1029280017D013F0040F04D0454A936843F4E053DA
:102938009360236813F0080F04D0414A936843F466
:10294800604393603E4A936823F0F003A1680B4309
:102958009360236813F0010F32D06368012B21D0F4
:102968009A1E012A25D9364A126812F0020F61D040
:1029780033498A6822F0030213438B60FEF7F0FDA7
:1029880006462F4B9B6803F00C036268B3EB820F7B
:1029980016D0FEF7E5FD801B41F288339842F0D946
:1029A800032042E0264A126812F4003FE0D10120D9
:1029B8003BE0234A126812F0007FD9D1012034E0AD
:1029C8001E4B1B6803F00703AB4207D9EAB21B4B47
:1029D8001A701B6803F00703AB422DD1236813F06C
:1029E800040F06D0164A936823F4E053E1680B43BA
:1029F8009360236813F0080F07D0114A936823F4F3
:102A08006043216943EAC1039360FFF71DFF0C4B44
:102A18009B68C3F303130B4AD35CD8400A4B186076
:102A28000A4B1868FEF750FD002070BD0120704762
:102A38000120FAE70120F8E70120F6E7003C024010
:102A480000380240FC340008000000200800002084
:102A5800014B1868704700BF0000002008B5FFF759
:102A6800F7FF044B9B68C3F38223034AD35CD84027
:102A780008BD00BF00380240F434000808B5FFF76D
:102A8800E7FF044B9B68C3F34233034AD35CD84047
:102A980008BD00BF00380240F434000830B4036AAF
:102AA800026A22F0010202624268846924F0730C0F
:102AB8000C6844EA0C0423F0020C8B6843EA0C030C
:102AC800114DA84203D005F58065A84205D123F031
:102AD8000803CD682B4323F004030B4DA84203D011
:102AE80005F58065A84207D122F440724D6945EA90
:102AF800020C8A6942EA0C02426084614A684263B5
:102B0800036230BC704700BF0000014030B4036A64
:102B1800026A22F4807202624268C46924F0730C6B
:102B28000C6844EA0C0523F400738C6843EA042318
:102B3800114CA04203D004F58064A04206D123F4CE
:102B48000063CC6843EA042323F480630A4CA04260
:102B580003D004F58064A04207D122F440524C69A6
:102B680042EA04128C6942EA04124260C5614A686A
:102B7800C263036230BC70470000014030B4036A8E
:102B8800026A22F4805202624468C26922F4E64270
:102B98000D6842EA052223F400538D6843EA0533A1
:102BA800094DA84203D005F58065A84204D124F454
:102BB80080444D6944EA85144460C2614A680264ED
:102BC800036230BC704700BF000001400368344A0C
:102BD800904212D0B0F1804F0FD0A2F57C429042C3
:102BE8000BD002F58062904207D002F580629042D5
:102BF80003D002F57842904203D123F070034A686B
:102C08001343274A90422AD0B0F1804F27D0A2F52B
:102C18007C42904223D002F5806290421FD002F598
:102C2800806290421BD002F57842904217D002F59C
:102C38007052904213D002F5806290420FD002F594
:102C4800806290420BD0A2F59832904207D002F5EC
:102C58008062904203D002F58062904203D123F44F
:102C68004073CA68134323F080034A69134303601F
:102C78008B68C3620B688362094B984203D003F5E3
:102C88008063984201D10B6903630123436103699F
:102C980013F0010F03D0036923F0010303617047A8
:102CA8000000014040B310B5044690F83D30F3B140
:102CB800022384F83D30214651F8040BFFF786FFC4
:102CC800012384F8463084F83E3084F83F3084F895
:102CD800403084F8413084F8423084F8433084F836
:102CE800443084F8453084F83D30002010BD80F829
:102CF8003C30FEF7E9F9DBE70120704740B310B537
:102D0800044690F83D30F3B1022384F83D30214663
:102D180051F8040BFFF75AFF012384F8463084F872
:102D28003E3084F83F3084F8403084F8413084F8ED
:102D3800423084F8433084F8443084F8453084F8CD
:102D48003D30002010BD80F83C30FEF7A5F9DBE7E8
:102D58000120704730B4036A026A22F0100202624E
:102D68004468826922F4E6420D6842EA052223F0AB
:102D780020038D6843EA0513114DA84203D005F5D9
:102D88008065A84206D123F08003CD6843EA051385
:102D980023F040030A4DA84203D005F58065A842F8
:102DA80007D124F440644D6944EA85048D6944EAF6
:102DB8008504446082614A688263036230BC70475C
:102DC8000000014090F83C30012B28D010B5044693
:102DD800012380F83C300C2A1CD8DFE802F0071BDE
:102DE8001B1B0C1B1B1B111B1B1B16000068FFF772
:102DF80055FE00200FE00068FFF7ACFF00200AE056
:102E08000068FFF783FE002005E00068FFF7B6FEC4
:102E1800002000E00120002384F83C3010BD02208F
:102E2800704738B590F83C30012B66D004460D4603
:102E3800012380F83C300C2A5AD8DFE802F0075901
:102E480059591B5959593059595944000068FFF7C5
:102E580025FE2268936943F0080393612268936909
:102E680023F0040393612268936929690B439361F2
:102E780000203EE00068FFF76DFF2268936943F485
:102E8800006393612268936923F4806393612268E5
:102E98009369296943EA01239361002029E00068C6
:102EA800FFF734FE2268D36943F00803D361226830
:102EB800D36923F00403D3612268D36929690B43DA
:102EC800D361002015E00068FFF758FE2268D36937
:102ED80043F40063D3612268D36923F48063D36128
:102EE8002268D369296943EA0123D361002000E0FD
:102EF8000120002384F83C3038BD0220FCE70000A4
:102F080090F83C20012A3CD010B40346012280F8F6
:102F18003C20022280F83D2002685068946820F026
:102F2800700C086840EA0C0050601A681648824223
:102F38001AD0B2F1804F17D0A0F57C40824213D04E
:102F480000F5806082420FD000F5806082420BD08D
:102F580000F57840824207D000F57050824203D0D5
:102F6800A0F59430824204D124F0800449682143BA
:102F78009160012283F83D20002083F83C0010BCBA
:102F880070470220704700BF00000140024690F8D9
:102F98003C30012B21D0012380F83C30CB6823F44E
:102FA80040738868034323F480634868034323F429
:102FB80000630868034323F480530869034323F438
:102FC80000534869034323F48043C9690B431168DC
:102FD8004B64002082F83C0070470220704702686A
:102FE80002F10C0353E8003F23F0C0030C3242E81F
:102FF80000310029F3D1202380F84130704702685E
:1030080002F10C0353E8003F23F490730C3242E8BA
:1030180000310029F3D1026802F1140353E8003F9C
:1030280023F00103143242E800310029F3D1036B85
:10303800012B05D0202380F842300023036370471A
:10304800026802F10C0353E8003F23F010030C322E
:1030580042E800310029F3D1ECE7000010B504463E
:103068000268136923F44053C1680B4313618368F2
:1030780002691A4343691A43C3691A430168CB6852
:1030880023F4164323F00C031343CB6002685369FF
:1030980023F4407381690B4353610368314A9342B7
:1030A80006D002F58062934202D0FFF7D7FC01E018
:1030B800FFF7E4FCE369B3F5004F29D000210318BA
:1030C80049411B1841F10001C90041EA5371DB0075
:1030D800181863684FEA83024FEA937341F10001BD
:1030E800FDF7CCFA204AA2FB00314909642303FB0F
:1030F80011031B013233A2FB03235B0903F0F00227
:1031080002EB011203F00F03216813448B6010BD1A
:103118000023021843EB0301121841F10001C90012
:1031280041EA5271D200101841F100016268921808
:103138005B41FDF7A3FA0C4AA2FB0031490964235D
:1031480003FB1103DB003233A2FB03235B095A00A4
:1031580002F4F87202EB011203F00703216813442A
:103168008B60D4E7001001401F85EB5160B310B5A8
:10317800044690F8413013B3242384F84130226880
:10318800D36823F40053D3602046FFF767FF226813
:10319800136923F4904313612268536923F02A03C7
:1031A80053612268D36843F40053D36000206064FD
:1031B800202384F8413084F84230606310BD80F8E1
:1031C8004030FEF7FDF8D7E7012070477047704799
:1031D80010B5846B23685A6994F84130DBB2212B0F
:1031E80010D023685A6902F0400294F84230DBB2EA
:1031F800222B11D0636C43F0100363642046FFF761
:10320800E6FF10BD02F08002002AEAD00023E38422
:103218002046FFF7E4FEE4E7002AEBD00023E3852D
:103228002046FFF7ECFEE5E7704708B5806B012301
:103238004363036B012B02D0FFF7C8FF08BD818DE4
:103248004908FFF7F1FFF9E708B50346806B1B68EB
:103258001B6813F4807F2BD10023C385026802F119
:103268000C0353E8003F23F480730C3242E800312A
:103278000029F3D1026802F1140353E8003F23F058
:103288000103143242E800310029F3D1026802F147
:10329800140353E8003F23F04003143242E800319E
:1032A8000029F3D1202380F84230036B012B07D08B
:1032B80000234363036B012B0FD0FDF79DFE08BD70
:1032C800026802F10C0353E8003F23F010030C32AC
:1032D80042E800310029F3D1EAE7818DFFF7A4FF26
:1032E800EDE7000030B583B004461346816282855D
:1032F80000254564222280F84220C26B1F48D06313
:10330800E26B1F481064E26B1E48D064E26B1565DF
:1033180020680A46011DE06BFEF77CFE01952368D4
:103328001A6801925B680193019B23695BB122686B
:1033380002F10C0353E8003F43F480730C3242E877
:1033480000310029F3D1226802F1140353E8003F49
:1033580043F00103143242E800310029F3D1226816
:1033680002F1140353E8003F43F04003143242E8EB
:1033780000310029F3D1002003B030BD51320008DC
:1033880033320008D931000808B590F84230DBB272
:10339800202B08D149B10AB9012008BD00230363D5
:1033A800FFF7A0FFF9E70220F7E70120F5E702445D
:1033B8000346934200D1704703F8011BF9E7000068
:1033C80070B50D4D0D4C641BA4100026A64209D102
:1033D8000B4D0C4C00F07EF8641BA4100026A6428E
:1033E80005D170BD55F8043B98470136EEE755F80E
:1033F800043B98470136F2E71C3500081C350008E5
:103408001C3500082435000870477047024B13B17B
:10341800024800F005B87047000000003534000885
:10342800002301461A46184600F014B838B5074D6F
:10343800074C641BA4101CB9BDE8384000F050B814
:10344800013C55F824309847F5E700BF24350008BB
:10345800283500082DE9F047DFF86CA00646DAF8B1
:10346800000098460F469146FFF7CEFF174B1C68A1
:103478000CB9174C1C606568DAF800001F2D05DDD3
:10348800FFF7C3FF4FF0FF30BDE8F0879EB104EBB4
:1034980085010122C1F88890D4F88831AA401343E5
:1034A800C4F88831022EC1F8088102BFD4F88C31E3
:1034B8001343C4F88C316B1C0235636044F82570E3
:1034C800FFF7A3FF0020DFE70C00002080020020A8
:1034D80084020020F8B500BFF8BC08BC9E467047BF
:0C34E800F8B500BFF8BC08BC9E46704759
:1034F40000000000010203040000000000000000BE
:103504000102030406070809000610160006101637
:08351400A0D1FF7F01000000BF
:08351C0015340008AD010008A0
:043524008901000811
:103528000024F40001000000100000007C020020CC
:040000050800147D5E
:00000001FF
